{
  "contractName": "Aggregator",
  "abi": [
    {
      "inputs": [
        {
          "internalType": "contract Whitelist",
          "name": "_whitelist",
          "type": "address"
        }
      ],
      "payable": false,
      "stateMutability": "nonpayable",
      "type": "constructor"
    },
    {
      "constant": false,
      "inputs": [
        {
          "internalType": "uint256",
          "name": "reqID",
          "type": "uint256"
        },
        {
          "internalType": "string",
          "name": "data",
          "type": "string"
        },
        {
          "internalType": "address",
          "name": "callbackAddress",
          "type": "address"
        },
        {
          "internalType": "bytes4",
          "name": "callbackMethodID",
          "type": "bytes4"
        }
      ],
      "name": "collectData",
      "outputs": [],
      "payable": false,
      "stateMutability": "nonpayable",
      "type": "function"
    }
  ],
  "bytecode": "0x608060405234801561001057600080fd5b5060405161055f38038061055f8339818101604052602081101561003357600080fd5b8101908080519060200190929190505050806000806101000a81548173ffffffffffffffffffffffffffffffffffffffff021916908373ffffffffffffffffffffffffffffffffffffffff160217905550506104cb806100946000396000f3fe608060405234801561001057600080fd5b506004361061002b5760003560e01c80630518709214610030575b600080fd5b61013c6004803603608081101561004657600080fd5b81019080803590602001909291908035906020019064010000000081111561006d57600080fd5b82018360208201111561007f57600080fd5b803590602001918460018302840111640100000000831117156100a157600080fd5b91908080601f016020809104026020016040519081016040528093929190818152602001838380828437600081840152601f19601f820116905080830192505050505050509192919290803573ffffffffffffffffffffffffffffffffffffffff16906020019092919080357bffffffffffffffffffffffffffffffffffffffffffffffffffffffff1916906020019092919050505061013e565b005b60606000809054906101000a900473ffffffffffffffffffffffffffffffffffffffff1673ffffffffffffffffffffffffffffffffffffffff1663e29581aa6040518163ffffffff1660e01b815260040160006040518083038186803b1580156101a757600080fd5b505afa1580156101bb573d6000803e3d6000fd5b505050506040513d6000823e3d601f19601f8201168201806040525060208110156101e557600080fd5b810190808051604051939291908464010000000082111561020557600080fd5b8382019150602082018581111561021b57600080fd5b825186602082028301116401000000008211171561023857600080fd5b8083526020830192505050908051906020019060200280838360005b8381101561026f578082015181840152602081019050610254565b505050509050016040525050509050600080905060008090505b60018351038110156102ee573373ffffffffffffffffffffffffffffffffffffffff168382815181106102b857fe5b602002602001015173ffffffffffffffffffffffffffffffffffffffff1614156102e157600191505b8080600101915050610289565b50806102f957600080fd5b60008473ffffffffffffffffffffffffffffffffffffffff1684888860405160200180847bffffffffffffffffffffffffffffffffffffffffffffffffffffffff19167bffffffffffffffffffffffffffffffffffffffffffffffffffffffff1916815260200183815260200180602001828103825283818151815260200191508051906020019080838360005b838110156103a2578082015181840152602081019050610387565b50505050905090810190601f1680156103cf5780820380516001836020036101000a031916815260200191505b509450505050506040516020818303038152906040526040518082805190602001908083835b6020831061041857805182526020820191506020810190506020830392506103f5565b6001836020036101000a0380198251168184511680821785525050505050509050019150506000604051808303816000865af19150503d806000811461047a576040519150601f19603f3d011682016040523d82523d6000602084013e61047f565b606091505b505090508061048d57600080fd5b5050505050505056fea265627a7a72315820af1238d3a660bfb87227915168f7fd383b4c4a4546eeb77791e65d7ec80d332d64736f6c63430005100032",
  "source": "//SPDX-License-Identifier: MIT\npragma solidity >= 0.5.0 < 0.7.0;\n\nimport \"./Whitelist.sol\";\n\ncontract Aggregator {\n  Whitelist whitelist;\n\n  constructor(Whitelist _whitelist) public {\n    whitelist = _whitelist;\n  }\n\n  function collectData(uint256 reqID, string memory data, address callbackAddress, bytes4 callbackMethodID) public {\n    address[] memory nodes = whitelist.getNodes();\n    bool nodeInTheList = false;\n    for (uint256 i = 0; i < nodes.length-1; i++) {\n      if (nodes[i] == msg.sender) {\n        nodeInTheList = true;\n      }\n    }\n    require(nodeInTheList);\n    (bool success,) = callbackAddress.call(abi.encode(callbackMethodID, reqID, data));\n    require(success);\n  }\n}\n",
  "sourcePath": "/home/chronosx/Документы/code/hackfs_hackathon/p2p-oracle-contracts/contracts/Aggregator.sol",
  "compiler": {
    "name": "solc",
    "version": "0.5.16+commit.9c3226ce.Emscripten.clang"
  },
  "schemaVersion": "3.2.3",
  "updatedAt": "2020-08-01T18:14:26.440Z",
  "networkType": "ethereum",
  "devdoc": {
    "methods": {}
  },
  "userdoc": {
    "methods": {}
  }
}