{
  "contractName": "OracleEmitter",
  "abi": [
    {
      "anonymous": false,
      "inputs": [
        {
          "indexed": false,
          "internalType": "string",
          "name": "requestType",
          "type": "string"
        },
        {
          "indexed": false,
          "internalType": "address",
          "name": "callbackAddress",
          "type": "address"
        },
        {
          "indexed": false,
          "internalType": "bytes4",
          "name": "callbackMethodID",
          "type": "bytes4"
        },
        {
          "indexed": false,
          "internalType": "uint256",
          "name": "requestID",
          "type": "uint256"
        }
      ],
      "name": "NewOracleRequest",
      "type": "event"
    },
    {
      "constant": false,
      "inputs": [
        {
          "internalType": "string",
          "name": "requestType",
          "type": "string"
        },
        {
          "internalType": "address",
          "name": "callbackAddress",
          "type": "address"
        },
        {
          "internalType": "bytes4",
          "name": "callbackMethodID",
          "type": "bytes4"
        }
      ],
      "name": "requestOracles",
      "outputs": [
        {
          "internalType": "uint256",
          "name": "",
          "type": "uint256"
        }
      ],
      "payable": false,
      "stateMutability": "nonpayable",
      "type": "function"
    }
  ],
  "bytecode": "0x608060405234801561001057600080fd5b506102bc806100206000396000f3fe608060405234801561001057600080fd5b506004361061002b5760003560e01c8063cae2f48014610030575b600080fd5b6101326004803603606081101561004657600080fd5b810190808035906020019064010000000081111561006357600080fd5b82018360208201111561007557600080fd5b8035906020019184600183028401116401000000008311171561009757600080fd5b91908080601f016020809104026020016040519081016040528093929190818152602001838380828437600081840152601f19601f820116905080830192505050505050509192919290803573ffffffffffffffffffffffffffffffffffffffff16906020019092919080357bffffffffffffffffffffffffffffffffffffffffffffffffffffffff19169060200190929190505050610148565b6040518082815260200191505060405180910390f35b600080600081548092919060010191905055507fc1a7df69ed0404441720a3eb710f322985ecbbe4f31934587bee703efe04427a84848460005460405180806020018573ffffffffffffffffffffffffffffffffffffffff1673ffffffffffffffffffffffffffffffffffffffff168152602001847bffffffffffffffffffffffffffffffffffffffffffffffffffffffff19167bffffffffffffffffffffffffffffffffffffffffffffffffffffffff19168152602001838152602001828103825286818151815260200191508051906020019080838360005b8381101561023e578082015181840152602081019050610223565b50505050905090810190601f16801561026b5780820380516001836020036101000a031916815260200191505b509550505050505060405180910390a16000549050939250505056fea265627a7a72315820e2318b36c0e0b181ca740732b75663e0a45bd78491a4a57ee78e33bb75fbc20564736f6c63430005100032",
  "source": "// SPDX-License-Identifier: MIT\npragma solidity >=0.4.21 <0.7.0;\n\ncontract OracleEmitter {\n  uint256 requestCounter;\n\n  event NewOracleRequest(\n    string requestType,\n    address callbackAddress,\n    bytes4 callbackMethodID,\n    uint256 requestID\n  );\n\n  function requestOracles(string memory requestType, address callbackAddress, bytes4 callbackMethodID) public returns (uint256) {\n    requestCounter++;\n    emit NewOracleRequest(requestType, callbackAddress, callbackMethodID, requestCounter);\n    return requestCounter;\n  }\n}\n",
  "sourcePath": "/home/chronosx/Документы/code/hackfs_hackathon/p2p-oracle-contracts/contracts/OracleEmitter.sol",
  "compiler": {
    "name": "solc",
    "version": "0.5.16+commit.9c3226ce.Emscripten.clang"
  },
  "schemaVersion": "3.2.3",
  "updatedAt": "2020-08-01T18:14:26.436Z",
  "networkType": "ethereum",
  "devdoc": {
    "methods": {}
  },
  "userdoc": {
    "methods": {}
  }
}